{
  "contractName": "CoolSaurusKid",
  "abi": [
    {
      "inputs": [
        {
          "internalType": "string",
          "name": "_name",
          "type": "string"
        },
        {
          "internalType": "string",
          "name": "_symbol",
          "type": "string"
        }
      ],
      "stateMutability": "nonpayable",
      "type": "constructor"
    },
    {
      "anonymous": false,
      "inputs": [
        {
          "indexed": true,
          "internalType": "address",
          "name": "_owner",
          "type": "address"
        },
        {
          "indexed": true,
          "internalType": "address",
          "name": "_approved",
          "type": "address"
        },
        {
          "indexed": true,
          "internalType": "uint256",
          "name": "_tokenId",
          "type": "uint256"
        }
      ],
      "name": "Approval",
      "type": "event"
    },
    {
      "anonymous": false,
      "inputs": [
        {
          "indexed": true,
          "internalType": "address",
          "name": "_owner",
          "type": "address"
        },
        {
          "indexed": true,
          "internalType": "address",
          "name": "_operator",
          "type": "address"
        },
        {
          "indexed": false,
          "internalType": "bool",
          "name": "_approved",
          "type": "bool"
        }
      ],
      "name": "ApprovalForAll",
      "type": "event"
    },
    {
      "anonymous": false,
      "inputs": [
        {
          "indexed": true,
          "internalType": "bytes32",
          "name": "role",
          "type": "bytes32"
        },
        {
          "indexed": true,
          "internalType": "bytes32",
          "name": "previousAdminRole",
          "type": "bytes32"
        },
        {
          "indexed": true,
          "internalType": "bytes32",
          "name": "newAdminRole",
          "type": "bytes32"
        }
      ],
      "name": "RoleAdminChanged",
      "type": "event"
    },
    {
      "anonymous": false,
      "inputs": [
        {
          "indexed": true,
          "internalType": "bytes32",
          "name": "role",
          "type": "bytes32"
        },
        {
          "indexed": true,
          "internalType": "address",
          "name": "account",
          "type": "address"
        },
        {
          "indexed": true,
          "internalType": "address",
          "name": "sender",
          "type": "address"
        }
      ],
      "name": "RoleGranted",
      "type": "event"
    },
    {
      "anonymous": false,
      "inputs": [
        {
          "indexed": true,
          "internalType": "bytes32",
          "name": "role",
          "type": "bytes32"
        },
        {
          "indexed": true,
          "internalType": "address",
          "name": "account",
          "type": "address"
        },
        {
          "indexed": true,
          "internalType": "address",
          "name": "sender",
          "type": "address"
        }
      ],
      "name": "RoleRevoked",
      "type": "event"
    },
    {
      "anonymous": false,
      "inputs": [
        {
          "indexed": true,
          "internalType": "address",
          "name": "_from",
          "type": "address"
        },
        {
          "indexed": true,
          "internalType": "address",
          "name": "_to",
          "type": "address"
        },
        {
          "indexed": true,
          "internalType": "uint256",
          "name": "_tokenId",
          "type": "uint256"
        }
      ],
      "name": "Transfer",
      "type": "event"
    },
    {
      "inputs": [],
      "name": "BURNER_ROLE",
      "outputs": [
        {
          "internalType": "bytes32",
          "name": "",
          "type": "bytes32"
        }
      ],
      "stateMutability": "view",
      "type": "function",
      "constant": true
    },
    {
      "inputs": [],
      "name": "DEFAULT_ADMIN_ROLE",
      "outputs": [
        {
          "internalType": "bytes32",
          "name": "",
          "type": "bytes32"
        }
      ],
      "stateMutability": "view",
      "type": "function",
      "constant": true
    },
    {
      "inputs": [],
      "name": "MINTER_ROLE",
      "outputs": [
        {
          "internalType": "bytes32",
          "name": "",
          "type": "bytes32"
        }
      ],
      "stateMutability": "view",
      "type": "function",
      "constant": true
    },
    {
      "inputs": [
        {
          "internalType": "address",
          "name": "_approved",
          "type": "address"
        },
        {
          "internalType": "uint256",
          "name": "_tokenId",
          "type": "uint256"
        }
      ],
      "name": "approve",
      "outputs": [],
      "stateMutability": "nonpayable",
      "type": "function"
    },
    {
      "inputs": [
        {
          "internalType": "address",
          "name": "_owner",
          "type": "address"
        }
      ],
      "name": "balanceOf",
      "outputs": [
        {
          "internalType": "uint256",
          "name": "",
          "type": "uint256"
        }
      ],
      "stateMutability": "view",
      "type": "function",
      "constant": true
    },
    {
      "inputs": [
        {
          "internalType": "uint256",
          "name": "_tokenId",
          "type": "uint256"
        }
      ],
      "name": "getApproved",
      "outputs": [
        {
          "internalType": "address",
          "name": "",
          "type": "address"
        }
      ],
      "stateMutability": "view",
      "type": "function",
      "constant": true
    },
    {
      "inputs": [
        {
          "internalType": "bytes32",
          "name": "role",
          "type": "bytes32"
        }
      ],
      "name": "getRoleAdmin",
      "outputs": [
        {
          "internalType": "bytes32",
          "name": "",
          "type": "bytes32"
        }
      ],
      "stateMutability": "view",
      "type": "function",
      "constant": true
    },
    {
      "inputs": [
        {
          "internalType": "bytes32",
          "name": "role",
          "type": "bytes32"
        },
        {
          "internalType": "address",
          "name": "account",
          "type": "address"
        }
      ],
      "name": "grantRole",
      "outputs": [],
      "stateMutability": "nonpayable",
      "type": "function"
    },
    {
      "inputs": [
        {
          "internalType": "bytes32",
          "name": "role",
          "type": "bytes32"
        },
        {
          "internalType": "address",
          "name": "account",
          "type": "address"
        }
      ],
      "name": "hasRole",
      "outputs": [
        {
          "internalType": "bool",
          "name": "",
          "type": "bool"
        }
      ],
      "stateMutability": "view",
      "type": "function",
      "constant": true
    },
    {
      "inputs": [
        {
          "internalType": "address",
          "name": "_owner",
          "type": "address"
        },
        {
          "internalType": "address",
          "name": "_operator",
          "type": "address"
        }
      ],
      "name": "isApprovedForAll",
      "outputs": [
        {
          "internalType": "bool",
          "name": "",
          "type": "bool"
        }
      ],
      "stateMutability": "view",
      "type": "function",
      "constant": true
    },
    {
      "inputs": [],
      "name": "name",
      "outputs": [
        {
          "internalType": "string",
          "name": "_name",
          "type": "string"
        }
      ],
      "stateMutability": "view",
      "type": "function",
      "constant": true
    },
    {
      "inputs": [
        {
          "internalType": "uint256",
          "name": "_tokenId",
          "type": "uint256"
        }
      ],
      "name": "ownerOf",
      "outputs": [
        {
          "internalType": "address",
          "name": "_owner",
          "type": "address"
        }
      ],
      "stateMutability": "view",
      "type": "function",
      "constant": true
    },
    {
      "inputs": [
        {
          "internalType": "bytes32",
          "name": "role",
          "type": "bytes32"
        },
        {
          "internalType": "address",
          "name": "account",
          "type": "address"
        }
      ],
      "name": "renounceRole",
      "outputs": [],
      "stateMutability": "nonpayable",
      "type": "function"
    },
    {
      "inputs": [
        {
          "internalType": "bytes32",
          "name": "role",
          "type": "bytes32"
        },
        {
          "internalType": "address",
          "name": "account",
          "type": "address"
        }
      ],
      "name": "revokeRole",
      "outputs": [],
      "stateMutability": "nonpayable",
      "type": "function"
    },
    {
      "inputs": [
        {
          "internalType": "address",
          "name": "_from",
          "type": "address"
        },
        {
          "internalType": "address",
          "name": "_to",
          "type": "address"
        },
        {
          "internalType": "uint256",
          "name": "_tokenId",
          "type": "uint256"
        }
      ],
      "name": "safeTransferFrom",
      "outputs": [],
      "stateMutability": "nonpayable",
      "type": "function"
    },
    {
      "inputs": [
        {
          "internalType": "address",
          "name": "_from",
          "type": "address"
        },
        {
          "internalType": "address",
          "name": "_to",
          "type": "address"
        },
        {
          "internalType": "uint256",
          "name": "_tokenId",
          "type": "uint256"
        },
        {
          "internalType": "bytes",
          "name": "_data",
          "type": "bytes"
        }
      ],
      "name": "safeTransferFrom",
      "outputs": [],
      "stateMutability": "nonpayable",
      "type": "function"
    },
    {
      "inputs": [
        {
          "internalType": "address",
          "name": "_operator",
          "type": "address"
        },
        {
          "internalType": "bool",
          "name": "_approved",
          "type": "bool"
        }
      ],
      "name": "setApprovalForAll",
      "outputs": [],
      "stateMutability": "nonpayable",
      "type": "function"
    },
    {
      "inputs": [
        {
          "internalType": "bytes4",
          "name": "_interfaceID",
          "type": "bytes4"
        }
      ],
      "name": "supportsInterface",
      "outputs": [
        {
          "internalType": "bool",
          "name": "",
          "type": "bool"
        }
      ],
      "stateMutability": "view",
      "type": "function",
      "constant": true
    },
    {
      "inputs": [],
      "name": "symbol",
      "outputs": [
        {
          "internalType": "string",
          "name": "_symbol",
          "type": "string"
        }
      ],
      "stateMutability": "view",
      "type": "function",
      "constant": true
    },
    {
      "inputs": [
        {
          "internalType": "uint256",
          "name": "_index",
          "type": "uint256"
        }
      ],
      "name": "tokenByIndex",
      "outputs": [
        {
          "internalType": "uint256",
          "name": "",
          "type": "uint256"
        }
      ],
      "stateMutability": "view",
      "type": "function",
      "constant": true
    },
    {
      "inputs": [
        {
          "internalType": "address",
          "name": "_owner",
          "type": "address"
        },
        {
          "internalType": "uint256",
          "name": "_index",
          "type": "uint256"
        }
      ],
      "name": "tokenOfOwnerByIndex",
      "outputs": [
        {
          "internalType": "uint256",
          "name": "",
          "type": "uint256"
        }
      ],
      "stateMutability": "view",
      "type": "function",
      "constant": true
    },
    {
      "inputs": [
        {
          "internalType": "uint256",
          "name": "_tokenId",
          "type": "uint256"
        }
      ],
      "name": "tokenURI",
      "outputs": [
        {
          "internalType": "string",
          "name": "",
          "type": "string"
        }
      ],
      "stateMutability": "view",
      "type": "function",
      "constant": true
    },
    {
      "inputs": [],
      "name": "totalSupply",
      "outputs": [
        {
          "internalType": "uint256",
          "name": "",
          "type": "uint256"
        }
      ],
      "stateMutability": "view",
      "type": "function",
      "constant": true
    },
    {
      "inputs": [
        {
          "internalType": "address",
          "name": "_from",
          "type": "address"
        },
        {
          "internalType": "address",
          "name": "_to",
          "type": "address"
        },
        {
          "internalType": "uint256",
          "name": "_tokenId",
          "type": "uint256"
        }
      ],
      "name": "transferFrom",
      "outputs": [],
      "stateMutability": "nonpayable",
      "type": "function"
    },
    {
      "inputs": [
        {
          "internalType": "address",
          "name": "_to",
          "type": "address"
        },
        {
          "internalType": "uint256",
          "name": "_tokenId",
          "type": "uint256"
        },
        {
          "internalType": "string",
          "name": "_uri",
          "type": "string"
        }
      ],
      "name": "mint",
      "outputs": [],
      "stateMutability": "nonpayable",
      "type": "function"
    },
    {
      "inputs": [
        {
          "internalType": "uint256",
          "name": "_tokenId",
          "type": "uint256"
        }
      ],
      "name": "burn",
      "outputs": [],
      "stateMutability": "nonpayable",
      "type": "function"
    }
  ],
  "bytecode": "0x60806040523480156200001157600080fd5b506040516200254038038062002540833981016040819052620000349162000390565b600060208181527f67be87c3ff9960ca1e9cfac5cab2ff4747269cf9ed20c9b7306235ac35a491c58054600160ff1991821681179092557ff7815fccbf112960a73756e185887fedcb9fc64ca0a16cc5923b7960ed78080080548216831790557f77b7bbe0e49b76487c9476b5db3354cf5270619d0037ccb899c2a4c4a75b431880548216831790557f9562381dfbc2d8b8b66e765249f330164b73e329e5f01670660643571d1974df80548216831790557f7965db0b000000000000000000000000000000000000000000000000000000009093527f6058867f459625e0bd9134c0c23bd5f32ee9239a7fc4919b3707f730aeb5557080549093161790915582516200014891600991908501906200023f565b5080516200015e90600a9060208401906200023f565b506200016c60003362000174565b50506200047c565b62000180828262000184565b5050565b62000190828262000210565b62000180576000828152600c602090815260408083206001600160a01b03851684529091529020805460ff19166001179055620001cc6200023b565b6001600160a01b0316816001600160a01b0316837f2f8788117e7eff1d82e926ec794901d17c78024a50270940304540a733656f0d60405160405180910390a45050565b6000918252600c602090815260408084206001600160a01b0393909316845291905290205460ff1690565b3390565b8280546200024d90620003f7565b90600052602060002090601f016020900481019282620002715760008555620002bc565b82601f106200028c57805160ff1916838001178555620002bc565b82800160010185558215620002bc579182015b82811115620002bc5782518255916020019190600101906200029f565b50620002ca929150620002ce565b5090565b5b80821115620002ca5760008155600101620002cf565b600082601f830112620002f6578081fd5b81516001600160401b03808211156200031357620003136200044d565b6040516020601f8401601f19168201810183811183821017156200033b576200033b6200044d565b604052838252858401810187101562000352578485fd5b8492505b8383101562000375578583018101518284018201529182019162000356565b838311156200038657848185840101525b5095945050505050565b60008060408385031215620003a3578182fd5b82516001600160401b0380821115620003ba578384fd5b620003c886838701620002e5565b93506020850151915080821115620003de578283fd5b50620003ed85828601620002e5565b9150509250929050565b6002810460018216806200040c57607f821691505b6020821081141562000447577f4e487b7100000000000000000000000000000000000000000000000000000000600052602260045260246000fd5b50919050565b7f4e487b7100000000000000000000000000000000000000000000000000000000600052604160045260246000fd5b6120b4806200048c6000396000f3fe608060405234801561001057600080fd5b506004361061018e5760003560e01c80634f6ccce7116100de578063a22cb46511610097578063d3fc986411610071578063d3fc98641461033d578063d539139314610350578063d547741f14610358578063e985e9c51461036b5761018e565b8063a22cb46514610304578063b88d4fde14610317578063c87b56dd1461032a5761018e565b80634f6ccce7146102a85780636352211e146102bb57806370a08231146102ce57806391d14854146102e157806395d89b41146102f4578063a217fddf146102fc5761018e565b8063248a9ca31161014b5780632f745c59116101255780632f745c591461025c57806336568abe1461026f57806342842e0e1461028257806342966c68146102955761018e565b8063248a9ca31461022e578063282c51f3146102415780632f2ff15d146102495761018e565b806301ffc9a71461019357806306fdde03146101bc578063081812fc146101d1578063095ea7b3146101f157806318160ddd1461020657806323b872dd1461021b575b600080fd5b6101a66101a1366004611db7565b61037e565b6040516101b39190611ee1565b60405180910390f35b6101c46103a1565b6040516101b39190611ef5565b6101e46101df366004611d7d565b610433565b6040516101b39190611e90565b6102046101ff366004611cfc565b6104b5565b005b61020e610657565b6040516101b39190611eec565b610204610229366004611c1a565b61065d565b61020e61023c366004611d7d565b610818565b61020e61082d565b610204610257366004611d95565b610851565b61020e61026a366004611cfc565b610872565b61020461027d366004611d95565b610917565b610204610290366004611c1a565b61095d565b6102046102a3366004611d7d565b610978565b61020e6102b6366004611d7d565b6109ab565b6101e46102c9366004611d7d565b610a21565b61020e6102dc366004611bce565b610a79565b6101a66102ef366004611d95565b610ad0565b6101c4610afb565b61020e610b0a565b610204610312366004611cc2565b610b0f565b610204610325366004611c55565b610b7e565b6101c4610338366004611d7d565b610bc7565b61020461034b366004611d25565b610c33565b61020e610ca7565b610204610366366004611d95565b610ccb565b6101a6610379366004611be8565b610ce7565b6001600160e01b0319811660009081526020819052604090205460ff165b919050565b6060600980546103b09061201d565b80601f01602080910402602001604051908101604052809291908181526020018280546103dc9061201d565b80156104295780601f106103fe57610100808354040283529160200191610429565b820191906000526020600020905b81548152906001019060200180831161040c57829003601f168201915b5050505050905090565b6000818152600160209081526040808320548151808301909252600682526518181998181960d11b9282019290925283916001600160a01b03166104935760405162461bcd60e51b815260040161048a9190611ef5565b60405180910390fd5b506000838152600260205260409020546001600160a01b031691505b50919050565b60008181526001602052604090205481906001600160a01b03163381148061050057506001600160a01b038116600090815260046020908152604080832033845290915290205460ff165b6040518060400160405280600681526020016530303330303360d01b8152509061053d5760405162461bcd60e51b815260040161048a9190611ef5565b50600083815260016020908152604091829020548251808401909352600683526518181998181960d11b918301919091528491906001600160a01b03166105975760405162461bcd60e51b815260040161048a9190611ef5565b50600084815260016020908152604091829020548251808401909352600683526506060666060760d31b918301919091526001600160a01b03908116919087168214156105f75760405162461bcd60e51b815260040161048a9190611ef5565b5060008581526002602052604080822080546001600160a01b0319166001600160a01b038a811691821790925591518893918516917f8c5be1e5ebec7d5bd14f71427d1e84f3dd0314c0f7b2291e5b200ac8c7c3b92591a4505050505050565b60055490565b60008181526001602052604090205481906001600160a01b03163381148061069b57506000828152600260205260409020546001600160a01b031633145b806106c957506001600160a01b038116600090815260046020908152604080832033845290915290205460ff165b604051806040016040528060068152602001650c0c0ccc0c0d60d21b815250906107065760405162461bcd60e51b815260040161048a9190611ef5565b50600083815260016020908152604091829020548251808401909352600683526518181998181960d11b918301919091528491906001600160a01b03166107605760405162461bcd60e51b815260040161048a9190611ef5565b50600084815260016020908152604091829020548251808401909352600683526530303330303760d01b918301919091526001600160a01b039081169190881682146107bf5760405162461bcd60e51b815260040161048a9190611ef5565b5060408051808201909152600681526530303330303160d01b60208201526001600160a01b0387166108045760405162461bcd60e51b815260040161048a9190611ef5565b5061080f8686610d15565b50505050505050565b6000908152600c602052604090206001015490565b7f3c11d16cbaffd01df69ce1c404f6340ee057498f5f00246190ea54220576a84881565b61085a82610818565b61086381610d90565b61086d8383610da4565b505050565b6001600160a01b0382166000908152600760209081526040808320548151808301909252600682526530303530303760d01b928201929092529083106108cb5760405162461bcd60e51b815260040161048a9190611ef5565b506001600160a01b038316600090815260076020526040902080548390811061090457634e487b7160e01b600052603260045260246000fd5b9060005260206000200154905092915050565b61091f610e2b565b6001600160a01b0316816001600160a01b03161461094f5760405162461bcd60e51b815260040161048a90611f3d565b6109598282610e2f565b5050565b61086d83838360405180602001604052806000815250610eb4565b7f3c11d16cbaffd01df69ce1c404f6340ee057498f5f00246190ea54220576a8486109a281610d90565b61095982611162565b60055460408051808201909152600681526530303530303760d01b602082015260009183106109ed5760405162461bcd60e51b815260040161048a9190611ef5565b5060058281548110610a0f57634e487b7160e01b600052603260045260246000fd5b90600052602060002001549050919050565b600081815260016020908152604091829020548251808401909352600683526518181998181960d11b918301919091526001600160a01b031690816104af5760405162461bcd60e51b815260040161048a9190611ef5565b60408051808201909152600681526530303330303160d01b60208201526000906001600160a01b038316610ac05760405162461bcd60e51b815260040161048a9190611ef5565b50610aca82611182565b92915050565b6000918252600c602090815260408084206001600160a01b0393909316845291905290205460ff1690565b6060600a80546103b09061201d565b600081565b3360008181526004602090815260408083206001600160a01b038716808552925291829020805460ff191685151517905590519091907f17307eab39ab6107e8899845ad3d59bd9653f200f220920489ca2b5937696c3190610b72908590611ee1565b60405180910390a35050565b610bc085858585858080601f016020809104026020016040519081016040528093929190818152602001838380828437600092019190915250610eb492505050565b5050505050565b600081815260016020908152604091829020548251808401909352600683526518181998181960d11b9183019190915260609183916001600160a01b0316610c225760405162461bcd60e51b815260040161048a9190611ef5565b50610c2c8361118d565b9392505050565b7f9f2df0fed2c77648de5860a4cc508cd0818c85b8b8a1ab4ceeef8d981c8956a6610c5d81610d90565b610c67858561122f565b610bc08484848080601f01602080910402602001604051908101604052809392919081815260200183838082843760009201919091525061128f92505050565b7f9f2df0fed2c77648de5860a4cc508cd0818c85b8b8a1ab4ceeef8d981c8956a681565b610cd482610818565b610cdd81610d90565b61086d8383610e2f565b6001600160a01b03918216600090815260046020908152604080832093909416825291909152205460ff1690565b6000818152600160205260409020546001600160a01b0316610d368261130e565b610d40818361132c565b610d4a8383611336565b81836001600160a01b0316826001600160a01b03167fddf252ad1be2c89b69c2b068fc378daa952ba7f163c4a11628f55a4df523b3ef60405160405180910390a4505050565b610da181610d9c610e2b565b611340565b50565b610dae8282610ad0565b610959576000828152600c602090815260408083206001600160a01b03851684529091529020805460ff19166001179055610de7610e2b565b6001600160a01b0316816001600160a01b0316837f2f8788117e7eff1d82e926ec794901d17c78024a50270940304540a733656f0d60405160405180910390a45050565b3390565b610e398282610ad0565b15610959576000828152600c602090815260408083206001600160a01b03851684529091529020805460ff19169055610e70610e2b565b6001600160a01b0316816001600160a01b0316837ff6391f5c32d9c69d2a47ea670b442974b53935d1edc7fd64eb21e047a839171b60405160405180910390a45050565b60008281526001602052604090205482906001600160a01b031633811480610ef257506000828152600260205260409020546001600160a01b031633145b80610f2057506001600160a01b038116600090815260046020908152604080832033845290915290205460ff165b604051806040016040528060068152602001650c0c0ccc0c0d60d21b81525090610f5d5760405162461bcd60e51b815260040161048a9190611ef5565b50600084815260016020908152604091829020548251808401909352600683526518181998181960d11b918301919091528591906001600160a01b0316610fb75760405162461bcd60e51b815260040161048a9190611ef5565b50600085815260016020908152604091829020548251808401909352600683526530303330303760d01b918301919091526001600160a01b039081169190891682146110165760405162461bcd60e51b815260040161048a9190611ef5565b5060408051808201909152600681526530303330303160d01b60208201526001600160a01b03881661105b5760405162461bcd60e51b815260040161048a9190611ef5565b506110668787610d15565b611078876001600160a01b03166113a4565b1561115857604051630a85bd0160e11b81526000906001600160a01b0389169063150b7a02906110b29033908d908c908c90600401611ea4565b602060405180830381600087803b1580156110cc57600080fd5b505af11580156110e0573d6000803e3d6000fd5b505050506040513d601f19601f820116820180604052508101906111049190611dd3565b60408051808201909152600681526530303330303560d01b60208201529091506001600160e01b03198216630a85bd0160e11b146111555760405162461bcd60e51b815260040161048a9190611ef5565b50505b5050505050505050565b61116b816113e0565b6000818152600b60205260408120610da191611a9b565b6000610aca826114be565b6000818152600b602052604090208054606091906111aa9061201d565b80601f01602080910402602001604051908101604052809291908181526020018280546111d69061201d565b80156112235780601f106111f857610100808354040283529160200191611223565b820191906000526020600020905b81548152906001019060200180831161120657829003601f168201915b50505050509050919050565b61123982826114d9565b600580546001818101835560008390527f036b6384b5eca791c62761152d0c79bb0604c104a5fb6f4eb0703f3154bb3db0909101839055905461127c9190611fc3565b6000918252600660205260409091205550565b600082815260016020908152604091829020548251808401909352600683526518181998181960d11b918301919091528391906001600160a01b03166112e85760405162461bcd60e51b815260040161048a9190611ef5565b506000838152600b60209081526040909120835161130892850190611ad7565b50505050565b600090815260026020526040902080546001600160a01b0319169055565b61095982826115bc565b6109598282611763565b61134a8282610ad0565b61095957611362816001600160a01b03166014611827565b61136d836020611827565b60405160200161137e929190611e1b565b60408051601f198184030181529082905262461bcd60e51b825261048a91600401611ef5565b6000813f7fc5d2460186f7233c927e7db2dcc703c0e500b653ca82273b7bfad8045d85a47081158015906113d85750808214155b949350505050565b6113e9816119d9565b60008181526006602052604081205460055490919061140a90600190611fc3565b905060006005828154811061142f57634e487b7160e01b600052603260045260246000fd5b90600052602060002001549050806005848154811061145e57634e487b7160e01b600052603260045260246000fd5b600091825260209091200155600580548061148957634e487b7160e01b600052603160045260246000fd5b600082815260208082208301600019908101839055909201909255918152600690915260408082209390935592835250812055565b6001600160a01b031660009081526007602052604090205490565b60408051808201909152600681526530303330303160d01b60208201526001600160a01b03831661151d5760405162461bcd60e51b815260040161048a9190611ef5565b50600081815260016020908152604091829020548251808401909352600683526518181998181b60d11b918301919091526001600160a01b0316156115755760405162461bcd60e51b815260040161048a9190611ef5565b506115808282611336565b60405181906001600160a01b038416906000907fddf252ad1be2c89b69c2b068fc378daa952ba7f163c4a11628f55a4df523b3ef908290a45050565b600081815260016020908152604091829020548251808401909352600683526530303330303760d01b918301919091526001600160a01b038481169116146116175760405162461bcd60e51b815260040161048a9190611ef5565b50600081815260016020818152604080842080546001600160a01b031916905560088252808420546001600160a01b0387168552600790925283205490929161165f91611fc3565b9050818114611712576001600160a01b03841660009081526007602052604081208054839081106116a057634e487b7160e01b600052603260045260246000fd5b906000526020600020015490508060076000876001600160a01b03166001600160a01b0316815260200190815260200160002084815481106116f257634e487b7160e01b600052603260045260246000fd5b600091825260208083209091019290925591825260089052604090208290555b6001600160a01b038416600090815260076020526040902080548061174757634e487b7160e01b600052603160045260246000fd5b6001900381819060005260206000200160009055905550505050565b600081815260016020908152604091829020548251808401909352600683526518181998181b60d11b918301919091526001600160a01b0316156117ba5760405162461bcd60e51b815260040161048a9190611ef5565b50600081815260016020818152604080842080546001600160a01b0319166001600160a01b038816908117909155808552600783529084208054808501825581865292852090920185905590925290546118149190611fc3565b6000918252600860205260409091205550565b60606000611836836002611fa4565b611841906002611f8c565b67ffffffffffffffff81111561186757634e487b7160e01b600052604160045260246000fd5b6040519080825280601f01601f191660200182016040528015611891576020820181803683370190505b509050600360fc1b816000815181106118ba57634e487b7160e01b600052603260045260246000fd5b60200101906001600160f81b031916908160001a905350600f60fb1b816001815181106118f757634e487b7160e01b600052603260045260246000fd5b60200101906001600160f81b031916908160001a905350600061191b846002611fa4565b611926906001611f8c565b90505b60018111156119ba576f181899199a1a9b1b9c1cb0b131b232b360811b85600f166010811061196857634e487b7160e01b600052603260045260246000fd5b1a60f81b82828151811061198c57634e487b7160e01b600052603260045260246000fd5b60200101906001600160f81b031916908160001a90535060049490941c936119b381612006565b9050611929565b508315610c2c5760405162461bcd60e51b815260040161048a90611f08565b600081815260016020908152604091829020548251808401909352600683526518181998181960d11b918301919091528291906001600160a01b0316611a325760405162461bcd60e51b815260040161048a9190611ef5565b506000828152600160205260409020546001600160a01b0316611a548361130e565b611a5e818461132c565b60405183906000906001600160a01b038416907fddf252ad1be2c89b69c2b068fc378daa952ba7f163c4a11628f55a4df523b3ef908390a4505050565b508054611aa79061201d565b6000825580601f10611ab95750610da1565b601f016020900490600052602060002090810190610da19190611b5b565b828054611ae39061201d565b90600052602060002090601f016020900481019282611b055760008555611b4b565b82601f10611b1e57805160ff1916838001178555611b4b565b82800160010185558215611b4b579182015b82811115611b4b578251825591602001919060010190611b30565b50611b57929150611b5b565b5090565b5b80821115611b575760008155600101611b5c565b80356001600160a01b038116811461039c57600080fd5b60008083601f840112611b98578182fd5b50813567ffffffffffffffff811115611baf578182fd5b602083019150836020828501011115611bc757600080fd5b9250929050565b600060208284031215611bdf578081fd5b610c2c82611b70565b60008060408385031215611bfa578081fd5b611c0383611b70565b9150611c1160208401611b70565b90509250929050565b600080600060608486031215611c2e578081fd5b611c3784611b70565b9250611c4560208501611b70565b9150604084013590509250925092565b600080600080600060808688031215611c6c578081fd5b611c7586611b70565b9450611c8360208701611b70565b935060408601359250606086013567ffffffffffffffff811115611ca5578182fd5b611cb188828901611b87565b969995985093965092949392505050565b60008060408385031215611cd4578182fd5b611cdd83611b70565b915060208301358015158114611cf1578182fd5b809150509250929050565b60008060408385031215611d0e578182fd5b611d1783611b70565b946020939093013593505050565b60008060008060608587031215611d3a578384fd5b611d4385611b70565b935060208501359250604085013567ffffffffffffffff811115611d65578283fd5b611d7187828801611b87565b95989497509550505050565b600060208284031215611d8e578081fd5b5035919050565b60008060408385031215611da7578182fd5b82359150611c1160208401611b70565b600060208284031215611dc8578081fd5b8135610c2c81612068565b600060208284031215611de4578081fd5b8151610c2c81612068565b60008151808452611e07816020860160208601611fda565b601f01601f19169290920160200192915050565b60007f416363657373436f6e74726f6c3a206163636f756e742000000000000000000082528351611e53816017850160208801611fda565b7001034b99036b4b9b9b4b733903937b6329607d1b6017918401918201528351611e84816028840160208801611fda565b01602801949350505050565b6001600160a01b0391909116815260200190565b6001600160a01b0385811682528416602082015260408101839052608060608201819052600090611ed790830184611def565b9695505050505050565b901515815260200190565b90815260200190565b600060208252610c2c6020830184611def565b6020808252818101527f537472696e67733a20686578206c656e67746820696e73756666696369656e74604082015260600190565b6020808252602f908201527f416363657373436f6e74726f6c3a2063616e206f6e6c792072656e6f756e636560408201526e103937b632b9903337b91039b2b63360891b606082015260800190565b60008219821115611f9f57611f9f612052565b500190565b6000816000190483118215151615611fbe57611fbe612052565b500290565b600082821015611fd557611fd5612052565b500390565b60005b83811015611ff5578181015183820152602001611fdd565b838111156113085750506000910152565b60008161201557612015612052565b506000190190565b60028104600182168061203157607f821691505b602082108114156104af57634e487b7160e01b600052602260045260246000fd5b634e487b7160e01b600052601160045260246000fd5b6001600160e01b031981168114610da157600080fdfea264697066735822122082f397cc7dfb93ba52581882f96e8cc66422914ab2926b88b72c384b5e74f14c64736f6c63430008000033",
  "immutableReferences": {},
  "source": "// SPDX-License-Identifier: MIT\n\npragma solidity ^0.8.0;\n\nimport \"./tokens/nf-token-metadata.sol\";\nimport \"./tokens/nf-token-enumerable.sol\";\nimport \"./access/AccessControl.sol\";\n\n\ncontract CoolSaurusKid is \n    NFTokenEnumerable,\n    NFTokenMetadata,\n    AccessControl\n{\n    bytes32 public constant MINTER_ROLE = keccak256(\"MINTER_ROLE\");\n    bytes32 public constant BURNER_ROLE = keccak256(\"BURNER_ROLE\");\n\n    constructor(string memory _name, string memory _symbol)\n    {\n        nftName = _name;\n        nftSymbol = _symbol;\n        \n        _setupRole(DEFAULT_ADMIN_ROLE, msg.sender);\n    }\n\n    function mint(address _to, uint256 _tokenId, string calldata _uri)\n        external\n        onlyRole(MINTER_ROLE) \n    {\n        super._mint(_to, _tokenId);\n        super._setTokenUri(_tokenId, _uri);\n    }\n\n    function burn(uint256 _tokenId)\n        external\n        onlyRole(BURNER_ROLE)\n    {\n        super._burn(_tokenId);\n    }\n\n    function _mint(address _to, uint256 _tokenId\n    )\n        internal\n        override(NFToken, NFTokenEnumerable)\n        virtual\n    {\n        NFTokenEnumerable._mint(_to, _tokenId);\n    }\n\n    function _burn(uint256 _tokenId)\n        internal\n        override(NFTokenMetadata, NFTokenEnumerable)\n        virtual\n    {\n        NFTokenEnumerable._burn(_tokenId);\n        if (bytes(idToUri[_tokenId]).length != 0)\n        {\n            delete idToUri[_tokenId];\n        }\n    }\n\n    function _removeNFToken(address _from, uint256 _tokenId)\n        internal\n        override(NFToken, NFTokenEnumerable)\n    {\n        NFTokenEnumerable._removeNFToken(_from, _tokenId);\n    }\n\n    function _addNFToken(address _to, uint256 _tokenId)\n        internal\n        override(NFToken, NFTokenEnumerable)\n    {\n        NFTokenEnumerable._addNFToken(_to, _tokenId);\n    }\n\n    function _getOwnerNFTCount(address _owner)\n        internal\n        override(NFToken, NFTokenEnumerable)\n        view\n        returns (uint256)\n    {\n        return NFTokenEnumerable._getOwnerNFTCount(_owner);\n    }\n}",
  "sourcePath": "/Users/younghoon/yh/nft-sample/contracts/CoolSaurusKid.sol",
  "compiler": {
    "name": "solc",
    "version": "0.8.0+commit.c7dfd78e.Emscripten.clang"
  },
  "schemaVersion": "3.1.0",
  "updatedAt": "2022-03-02T07:08:53.912Z",
  "networkType": "ethereum",
  "devdoc": {
    "kind": "dev",
    "methods": {
      "approve(address,uint256)": {
        "details": "Set or reaffirm the approved address for an NFT. This function can be changed to payable.",
        "params": {
          "_approved": "Address to be approved for the given NFT ID.",
          "_tokenId": "ID of the token to be approved."
        }
      },
      "balanceOf(address)": {
        "details": "Returns the number of NFTs owned by `_owner`. NFTs assigned to the zero address are considered invalid, and this function throws for queries about the zero address.",
        "params": {
          "_owner": "Address for whom to query the balance."
        },
        "returns": {
          "_0": "Balance of _owner."
        }
      },
      "getApproved(uint256)": {
        "details": "Get the approved address for a single NFT.",
        "params": {
          "_tokenId": "ID of the NFT to query the approval of."
        },
        "returns": {
          "_0": "Address that _tokenId is approved for."
        }
      },
      "getRoleAdmin(bytes32)": {
        "details": "Returns the admin role that controls `role`. See {grantRole} and {revokeRole}. To change a role's admin, use {_setRoleAdmin}."
      },
      "grantRole(bytes32,address)": {
        "details": "Grants `role` to `account`. If `account` had not been already granted `role`, emits a {RoleGranted} event. Requirements: - the caller must have ``role``'s admin role."
      },
      "hasRole(bytes32,address)": {
        "details": "Returns `true` if `account` has been granted `role`."
      },
      "isApprovedForAll(address,address)": {
        "details": "Checks if `_operator` is an approved operator for `_owner`.",
        "params": {
          "_operator": "The address that acts on behalf of the owner.",
          "_owner": "The address that owns the NFTs."
        },
        "returns": {
          "_0": "True if approved for all, false otherwise."
        }
      },
      "name()": {
        "details": "Returns a descriptive name for a collection of NFTokens.",
        "returns": {
          "_name": "Representing name."
        }
      },
      "ownerOf(uint256)": {
        "details": "Returns the address of the owner of the NFT. NFTs assigned to the zero address are considered invalid, and queries about them do throw.",
        "params": {
          "_tokenId": "The identifier for an NFT."
        },
        "returns": {
          "_owner": "Address of _tokenId owner."
        }
      },
      "renounceRole(bytes32,address)": {
        "details": "Revokes `role` from the calling account. Roles are often managed via {grantRole} and {revokeRole}: this function's purpose is to provide a mechanism for accounts to lose their privileges if they are compromised (such as when a trusted device is misplaced). If the calling account had been revoked `role`, emits a {RoleRevoked} event. Requirements: - the caller must be `account`."
      },
      "revokeRole(bytes32,address)": {
        "details": "Revokes `role` from `account`. If `account` had been granted `role`, emits a {RoleRevoked} event. Requirements: - the caller must have ``role``'s admin role."
      },
      "safeTransferFrom(address,address,uint256)": {
        "details": "Transfers the ownership of an NFT from one address to another address. This function can be changed to payable.",
        "params": {
          "_from": "The current owner of the NFT.",
          "_to": "The new owner.",
          "_tokenId": "The NFT to transfer."
        }
      },
      "safeTransferFrom(address,address,uint256,bytes)": {
        "details": "Transfers the ownership of an NFT from one address to another address. This function can be changed to payable.",
        "params": {
          "_data": "Additional data with no specified format, sent in call to `_to`.",
          "_from": "The current owner of the NFT.",
          "_to": "The new owner.",
          "_tokenId": "The NFT to transfer."
        }
      },
      "setApprovalForAll(address,bool)": {
        "details": "Enables or disables approval for a third party (\"operator\") to manage all of `msg.sender`'s assets. It also emits the ApprovalForAll event.",
        "params": {
          "_approved": "True if the operators is approved, false to revoke approval.",
          "_operator": "Address to add to the set of authorized operators."
        }
      },
      "supportsInterface(bytes4)": {
        "details": "Function to check which interfaces are suported by this contract.",
        "params": {
          "_interfaceID": "Id of the interface."
        },
        "returns": {
          "_0": "True if _interfaceID is supported, false otherwise."
        }
      },
      "symbol()": {
        "details": "Returns an abbreviated name for NFTokens.",
        "returns": {
          "_symbol": "Representing symbol."
        }
      },
      "tokenByIndex(uint256)": {
        "details": "Returns NFT ID by its index.",
        "params": {
          "_index": "A counter less than `totalSupply()`."
        },
        "returns": {
          "_0": "Token id."
        }
      },
      "tokenOfOwnerByIndex(address,uint256)": {
        "details": "returns the n-th NFT ID from a list of owner's tokens.",
        "params": {
          "_index": "Index number representing n-th token in owner's list of tokens.",
          "_owner": "Token owner's address."
        },
        "returns": {
          "_0": "Token id."
        }
      },
      "tokenURI(uint256)": {
        "details": "A distinct URI (RFC 3986) for a given NFT.",
        "params": {
          "_tokenId": "Id for which we want uri."
        },
        "returns": {
          "_0": "URI of _tokenId."
        }
      },
      "totalSupply()": {
        "details": "Returns the count of all existing NFTokens.",
        "returns": {
          "_0": "Total supply of NFTs."
        }
      },
      "transferFrom(address,address,uint256)": {
        "details": "Throws unless `msg.sender` is the current owner, an authorized operator, or the approved address for this NFT. Throws if `_from` is not the current owner. Throws if `_to` is the zero address. Throws if `_tokenId` is not a valid NFT. This function can be changed to payable.",
        "params": {
          "_from": "The current owner of the NFT.",
          "_to": "The new owner.",
          "_tokenId": "The NFT to transfer."
        }
      }
    },
    "version": 1
  },
  "userdoc": {
    "kind": "user",
    "methods": {
      "approve(address,uint256)": {
        "notice": "The zero address indicates there is no approved address. Throws unless `msg.sender` is the current NFT owner, or an authorized operator of the current owner."
      },
      "getApproved(uint256)": {
        "notice": "Throws if `_tokenId` is not a valid NFT."
      },
      "safeTransferFrom(address,address,uint256)": {
        "notice": "This works identically to the other function with an extra data parameter, except this function just sets data to \"\"."
      },
      "safeTransferFrom(address,address,uint256,bytes)": {
        "notice": "Throws unless `msg.sender` is the current owner, an authorized operator, or the approved address for this NFT. Throws if `_from` is not the current owner. Throws if `_to` is the zero address. Throws if `_tokenId` is not a valid NFT. When transfer is complete, this function checks if `_to` is a smart contract (code size > 0). If so, it calls `onERC721Received` on `_to` and throws if the return value is not `bytes4(keccak256(\"onERC721Received(address,uint256,bytes)\"))`."
      },
      "setApprovalForAll(address,bool)": {
        "notice": "This works even if sender doesn't own any tokens at the time."
      },
      "transferFrom(address,address,uint256)": {
        "notice": "The caller is responsible to confirm that `_to` is capable of receiving NFTs or else they may be permanently lost."
      }
    },
    "version": 1
  }
}